import * as functions from '../src/EthModule';

describe('genAccount', () => {
    let eth;

    beforeEach(() => {
        eth = new functions.Eth();
    });

    it('generate eth account', () => {
        const {mnemonic, path, privateKey, address} = eth.genAccount();

        console.log('mnemonic--->', mnemonic);
        console.log('path--->', path);
        console.log('privateKey--->', privateKey);
        console.log('address--->', address);
    });

    it('generate multi account transaction', () => {
        const privateKey = '0xe441324e86450e148d4884dff4148bf4b881568e4bb1dd079a8fca4cf75a89cc';
        const txData = {
            nonce: '0x01',
            gasPrice: '0x2540be400',
            gasLimit: '0x895440',
            value: '0x0'
        };

        const m = 2;
        const addrs = [
            '0xeB4F3CBd1999B8E9369886335bbb6Cf3Caebad95',
            '0x2e8f5CDdCA94A2199300326508318b05c3194967',
            '0x167256c6aF0aB356964E02d1C0aeB954327aE7bD'
        ];

        const {rawTransaction, transactionHash, multiAddr} = eth.multiAccount(privateKey, txData, m, addrs);

        expect(rawTransaction).toStrictEqual(
            '0xf910b8018502540be400838954408080b91065608060405260006003553480156200001657600080fd5b5060405162000fa538038062000fa58339810180604052810190808051820192919060200180519060200190929190505050600082518260098211806200005c57508181115b80620000685750600081145b80620000745750600082145b156200007f57600080fd5b600092505b8451831015620001b4576000808685815181101515620000a057fe5b9060200190602002015173ffffffffffffffffffffffffffffffffffffffff1673ffffffffffffffffffffffffffffffffffffffff16815260200190815260200160002060009054906101000a900460ff16806200012c5750600085848151811015156200010a57fe5b9060200190602002015173ffffffffffffffffffffffffffffffffffffffff16145b156200013757600080fd5b600160008087868151811015156200014b57fe5b9060200190602002015173ffffffffffffffffffffffffffffffffffffffff1673ffffffffffffffffffffffffffffffffffffffff16815260200190815260200160002060006101000a81548160ff021916908315150217905550828060010193505062000084565b8460019080519060200190620001cc929190620001df565b50836002819055505050505050620002b4565b8280548282559060005260206000209081019282156200025b579160200282015b828111156200025a5782518260006101000a81548173ffffffffffffffffffffffffffffffffffffffff021916908373ffffffffffffffffffffffffffffffffffffffff1602179055509160200191906001019062000200565b5b5090506200026a91906200026e565b5090565b620002b191905b80821115620002ad57600081816101000a81549073ffffffffffffffffffffffffffffffffffffffff02191690555060010162000275565b5090565b90565b610ce180620002c46000396000f300608060405260043610610083576000357c0100000000000000000000000000000000000000000000000000000000900463ffffffff16806301173672146100d35780631398a5f61461020957806385b2566a14610234578063a0e67e2b1461034a578063c6a2a9f1146103b6578063d0590bad146103e1578063d74f8edd1461044a575b7fc4c14883ae9fd8e26d5d59e3485ed29fd126d781d7e498a4ca5c54c8268e49363073ffffffffffffffffffffffffffffffffffffffff16316040518082815260200191505060405180910390a1005b3480156100df57600080fd5b50610207600480360381019080803573ffffffffffffffffffffffffffffffffffffffff169060200190929190803573ffffffffffffffffffffffffffffffffffffffff16906020019092919080359060200190929190803590602001908201803590602001908080602002602001604051908101604052809392919081815260200183836020028082843782019150505050505091929192908035906020019082018035906020019080806020026020016040519081016040528093929190818152602001838360200280828437820191505050505050919291929080359060200190820180359060200190808060200260200160405190810160405280939291908181526020018383602002808284378201915050505050509192919290505050610475565b005b34801561021557600080fd5b5061021e6105fb565b6040518082815260200191505060405180910390f35b34801561024057600080fd5b50610348600480360381019080803573ffffffffffffffffffffffffffffffffffffffff16906020019092919080359060200190929190803590602001908201803590602001908080602002602001604051908101604052809392919081815260200183836020028082843782019150505050505091929192908035906020019082018035906020019080806020026020016040519081016040528093929190818152602001838360200280828437820191505050505050919291929080359060200190820180359060200190808060200260200160405190810160405280939291908181526020018383602002808284378201915050505050509192919290505050610605565b005b34801561035657600080fd5b5061035f610708565b6040518080602001828103825283818151815260200191508051906020019060200280838360005b838110156103a2578082015181840152602081019050610387565b505050509050019250505060405180910390f35b3480156103c257600080fd5b506103cb610796565b6040518082815260200191505060405180910390f35b3480156103ed57600080fd5b5061042c600480360381019080803573ffffffffffffffffffffffffffffffffffffffff169060200190929190803590602001909291905050506107a0565b60405180826000191660001916815260200191505060405180910390f35b34801561045657600080fd5b5061045f6108de565b6040518082815260200191505060405180910390f35b61048286858585856108e3565b151561048d57600080fd5b6001600354016003819055508473ffffffffffffffffffffffffffffffffffffffff1663a9059cbb87866040518363ffffffff167c0100000000000000000000000000000000000000000000000000000000028152600401808373ffffffffffffffffffffffffffffffffffffffff1673ffffffffffffffffffffffffffffffffffffffff16815260200182815260200192505050600060405180830381600087803b15801561053c57600080fd5b505af1158015610550573d6000803e3d6000fd5b505050507f3d1915a2cdcecdfffc5eb2a7994c069bad5d4aa96aca85667dedbe60bb80491c858786604051808473ffffffffffffffffffffffffffffffffffffffff1673ffffffffffffffffffffffffffffffffffffffff1681526020018373ffffffffffffffffffffffffffffffffffffffff1673ffffffffffffffffffffffffffffffffffffffff168152602001828152602001935050505060405180910390a1505050505050565b6000600254905090565b833073ffffffffffffffffffffffffffffffffffffffff16311015151561062b57600080fd5b61063885858585856108e3565b151561064357600080fd5b6001600354016003819055508473ffffffffffffffffffffffffffffffffffffffff166108fc859081150290604051600060405180830381858888f19350505050158015610695573d6000803e3d6000fd5b507fd3eec71143c45f28685b24760ea218d476917aa0ac0392a55e5304cef40bd2b68585604051808373ffffffffffffffffffffffffffffffffffffffff1673ffffffffffffffffffffffffffffffffffffffff1681526020018281526020019250505060405180910390a15050505050565b6060600180548060200260200160405190810160405280929190818152602001828054801561078c57602002820191906000526020600020905b8160009054906101000a900473ffffffffffffffffffffffffffffffffffffffff1673ffffffffffffffffffffffffffffffffffffffff1681526020019060010190808311610742575b5050505050905090565b6000600354905090565b6000803073ffffffffffffffffffffffffffffffffffffffff168473ffffffffffffffffffffffffffffffffffffffff16141515156107de57600080fd5b600354308486604051602001808581526020018473ffffffffffffffffffffffffffffffffffffffff1673ffffffffffffffffffffffffffffffffffffffff1681526020018381526020018273ffffffffffffffffffffffffffffffffffffffff1673ffffffffffffffffffffffffffffffffffffffff1681526020019450505050506040516020818303038152906040526040518082805190602001908083835b6020831015156108a55780518252602082019150602081019050602083039250610880565b6001836020036101000a038019825116818451168082178552505050505050905001915050604051809103902090508091505092915050565b600981565b60008060606000855187511415156108fa57600080fd5b8451865114151561090a57600080fd5b60018054905087511115151561091f57600080fd5b60025487511015151561093157600080fd5b61093b8989610ac2565b9250865160405190808252806020026020018201604052801561096d5781602001602082028038833980820191505090505b509150600090505b8651811015610a9e57600183601b898481518110151561099157fe5b906020019060200201510188848151811015156109aa57fe5b9060200190602002015188858151811015156109c257fe5b90602001906020020151604051600081526020016040526040518085600019166000191681526020018460ff1660ff1681526020018360001916600019168152602001826000191660001916815260200194505050505060206040516020810390808403906000865af1158015610a3d573d6000803e3d6000fd5b505050602060405103518282815181101515610a5557fe5b9060200190602002019073ffffffffffffffffffffffffffffffffffffffff16908173ffffffffffffffffffffffffffffffffffffffff16815250508080600101915050610975565b610aa782610b88565b1515610ab257600080fd5b6001935050505095945050505050565b6000806060610ad185856107a0565b91506040805190810160405280601c81526020017f19457468657265756d205369676e6564204d6573736167653a0a333200000000815250905080826040518083805190602001908083835b602083101515610b425780518252602082019150602081019050602083039250610b1d565b6001836020036101000a03801982511681845116808217855250505050505090500182600019166000191681526020019250505060405180910390209250505092915050565b600080600060018054905084511115610ba057600080fd5b600091505b8351821015610caa576000808584815181101515610bbf57fe5b9060200190602002015173ffffffffffffffffffffffffffffffffffffffff1673ffffffffffffffffffffffffffffffffffffffff16815260200190815260200160002060009054906101000a900460ff161515610c1c57600080fd5b600090505b81811015610c9d578381815181101515610c3757fe5b9060200190602002015173ffffffffffffffffffffffffffffffffffffffff168483815181101515610c6557fe5b9060200190602002015173ffffffffffffffffffffffffffffffffffffffff161415610c9057600080fd5b8080600101915050610c21565b8180600101925050610ba5565b6001925050509190505600a165627a7a72305820018d0c297422e921590f6bd49d404a81daf011c37e772be81112b4ac466778f40029000000000000000000000000000000000000000000000000000000000000004000000000000000000000000000000000000000000000000000000000000000020000000000000000000000000000000000000000000000000000000000000003000000000000000000000000eb4f3cbd1999b8e9369886335bbb6cf3caebad950000000000000000000000002e8f5cddca94a2199300326508318b05c3194967000000000000000000000000167256c6af0ab356964e02d1c0aeb954327ae7bd25a037205e2e172b5ddea1fac83c50df4c5c4e12c73d50fb358db6d15c78250df131a036c50b955d66112a90e96ca517d4a9ab4950ab726bb882af0aa5764c5d218293'
        );
        expect(transactionHash).toStrictEqual('0xd09318d0081acf2fb31af4e3284ce4696bc327f00c0324b2db8f4a48a48d54b0');

        expect(multiAddr).toStrictEqual('0x0537ec3e1ecd5f48d024028c3346f54461f6b8c4');
    });

    it('generate multi sign transaction', () => {
        const txData = {
            nonce: '0x03',
            gasPrice: '0x2540be400',
            gasLimit: '0xdbba0',
            value: '0x0'
        };
        const multiNonce = 0;
        const to = '0x167256c6aF0aB356964E02d1C0aeB954327aE7bD';
        const multiAddr = '0x0537ec3e1ecd5f48d024028c3346f54461f6b8c4';
        const value = '1000000000000000000';
        const privateKeys = [
            '0xe441324e86450e148d4884dff4148bf4b881568e4bb1dd079a8fca4cf75a89cc',
            '0x36de9937f678c2d00c0c24070b301ac4ddd00bd06913da3a02608965097a72ac',
            '0x11857321c5fba7c2101011590618166fcd145f4755c40caca85a884de3d73f52'
        ];

        let ethTx = eth.genMultiSignTx(to, value, multiNonce, multiAddr, txData, privateKeys);

        const {rawTransaction, transactionHash} = eth.signTx(ethTx, privateKeys[0]);

        expect(rawTransaction).toStrictEqual(
            '0xf9028b038502540be400830dbba0940537ec3e1ecd5f48d024028c3346f54461f6b8c480b9022485b2566a000000000000000000000000167256c6af0ab356964e02d1c0aeb954327ae7bd0000000000000000000000000000000000000000000000000de0b6b3a764000000000000000000000000000000000000000000000000000000000000000000a0000000000000000000000000000000000000000000000000000000000000012000000000000000000000000000000000000000000000000000000000000001a00000000000000000000000000000000000000000000000000000000000000003000000000000000000000000000000000000000000000000000000000000000100000000000000000000000000000000000000000000000000000000000000000000000000000000000000000000000000000000000000000000000000000000000000000000000000000000000000000000000000000000000000000000000387b8317b8a792a9be6944b6aabe8eb345cb80d17abcf003f36cc359bfb9ad60f9a00fc1d14838f3ae045348401b0852fa7fadc3d7de8ebea5179dafa77890a6379cc700765b30f864699f7fca30d2d8192f5e5438c3e6af09056c7b57e8c92eb00000000000000000000000000000000000000000000000000000000000000035cc01960b4efe00e82789d28393bd519da5032629a3b5d9d816b62f620f84ed62f4c10226c39ac6306880856238f7527fb2f6caf45fa6019305e9b14d1a2af8a4210564736c8aa5de545828de966b82b00a5665d4e69347db320093fe7bff0fa25a0c58d0156d26cc1353600cc7bc02686964712f81817bb7f7ceb921fcecf958d62a06d75f2afd6b08f4675f9f309ba807cbdde5463b82358c6282e86d000672b25dd'
        );
        expect(transactionHash).toStrictEqual('0xd3f895aa71ad813fd5ed307f69afd5ba6fd8c7d60d5f57b2f598ec9e6efbaf91');
    });

    it('generate multi erc20 transaction', () => {
        const txData = {
            nonce: '0x01',
            gasPrice: '0x2540be400',
            gasLimit: '0x15f90',
            value: '0x0',
            to: '0xe86fdcc4a93c476b8bbc03a80868fa42f6c9919e'
        };

        const to = '0x2e8f5CDdCA94A2199300326508318b05c3194967';
        const value = '100000000000000000000';
        const privateKey = '0xe441324e86450e148d4884dff4148bf4b881568e4bb1dd079a8fca4cf75a89cc';

        let ethTx = eth.erc20Tx(txData, to, value);

        const {rawTransaction, transactionHash} = eth.signTx(ethTx, privateKey);

        expect(rawTransaction).toStrictEqual(
            '0xf8aa018502540be40083015f9094e86fdcc4a93c476b8bbc03a80868fa42f6c9919e80b844a9059cbb0000000000000000000000002e8f5cddca94a2199300326508318b05c31949670000000000000000000000000000000000000000000000056bc75e2d6310000026a0964eb02005b03026b008b9bd95aeff86c9f70ae21589e4866557f050db7640d3a063bfd08224c5a094e2194bd9a8cb321647812f61208ff565e858bdcc513972ad'
        );
        expect(transactionHash).toStrictEqual('0x4808873aef37ec42fb18dc72d638192090f5232c36bd5c59f7822d690f483dd6');
    });

    it('generate multi sign erc20 transaction', () => {
        const privateKeys = [
            '0xe441324e86450e148d4884dff4148bf4b881568e4bb1dd079a8fca4cf75a89cc',
            '0x36de9937f678c2d00c0c24070b301ac4ddd00bd06913da3a02608965097a72ac',
            '0x11857321c5fba7c2101011590618166fcd145f4755c40caca85a884de3d73f52'
        ];

        const addrs = [
            '0xeB4F3CBd1999B8E9369886335bbb6Cf3Caebad95',
            '0x2e8f5CDdCA94A2199300326508318b05c3194967',
            '0x167256c6aF0aB356964E02d1C0aeB954327aE7bD'
        ];

        let txData = {
            nonce: '0x02',
            gasPrice: '0x2540be400',
            gasLimit: '0x895440',
            value: '0x0'
        };

        const m = 2;

        const {multiAddr} = eth.multiAccount(privateKeys[0], txData, m, addrs);

        txData = {
            nonce: '0x04',
            gasPrice: '0x2540be400',
            gasLimit: '0xdbba0',
            value: '0x0'
        };
        const multiNonce = 0;
        const to = '0x167256c6aF0aB356964E02d1C0aeB954327aE7bD';
        const value = '1000000000000000000';
        const token = '0xE86fdcC4A93c476B8BbC03a80868fa42F6c9919E';

        let ethTx = eth.genERC20MultiSignTx(to, value, multiNonce, multiAddr, token, txData, privateKeys);

        const {rawTransaction, transactionHash} = eth.signTx(ethTx, privateKeys[0]);

        expect(rawTransaction).toStrictEqual(
            '0xf902ab048502540be400830dbba09470412138ffa6f7efcf21e7e968caeb6d4c4c96df80b9024401173672000000000000000000000000167256c6af0ab356964e02d1c0aeb954327ae7bd000000000000000000000000e86fdcc4a93c476b8bbc03a80868fa42f6c9919e0000000000000000000000000000000000000000000000000de0b6b3a764000000000000000000000000000000000000000000000000000000000000000000c0000000000000000000000000000000000000000000000000000000000000014000000000000000000000000000000000000000000000000000000000000001c00000000000000000000000000000000000000000000000000000000000000003000000000000000000000000000000000000000000000000000000000000000100000000000000000000000000000000000000000000000000000000000000000000000000000000000000000000000000000000000000000000000000000001000000000000000000000000000000000000000000000000000000000000000359fd521ddd4cd8582dd4562204702f8640a3f589895a478dfa89cf13b730ee13160588d2bfe47b73ef0c250488f657ba38b5f629e8349233c890ea0c214455b1eb9aafdde402b73363ccf418a787ff0131d7ff1d35969c73f27104898d4f355400000000000000000000000000000000000000000000000000000000000000037eabf3b8d46548078e4280bfea2b63f8d8f6ae2bca317938c975d40cdeb0bcda1a9dc8090c0e7acae35e682dc016ec35adcbeea9f0046677699f653f577a6f086332f0f146cb51c2b232e3a3bbae780925ca6a97316439a1f45ccf89a200446425a0eb06d5c2463337aa714279bfa23242af6af3c97a4c419bdda8fced4de3add875a07b68cd755b916ab9e9dca33d95f042a1ceb7f71d77aa7856ded243d7679e18cf'
        );
        expect(transactionHash).toStrictEqual('0x1ce9e3139dbbdda3981f185810585f9f5acc60f87b857548fd310e3a1832d219');
    });
});
